:1000000037110020130101803715024013058501C7
:1000100083250500B7530000938353A3B3E5750010
:100020002320B50037150240130545008325050040
:10003000B7430000B3E575002320B5003715014034
:10004000832505009303F0F0B3F5750093030003D7
:10005000B3E575002320B5003715014013050540B1
:1000600083250500B71300F09383F3FFB3F5750004
:10007000B703B008B3E575002320B500B7120140FF
:10008000938202011303200023A062003745014040
:10009000130585808325050093031034B3E57500AF
:1000A0002320B500374501401305C5808325050091
:1000B000B72300009383C300B3E575002320B50088
:1000C0003725014013058540832505009303E0FF94
:1000D000B3F575002320B5003725014013054543CE
:1000E0008325050093037000B3E575002320B50058
:1000F000372501401305054183250500B703E000BE
:10010000B3E575002320B500372501401305854070
:1001100083250500B7030E0093831300B3E5750034
:100120002320B500372501401305854083250500B0
:1001300093038000B3E575002320B5003725014007
:10014000130585408325050093F58500E39805FE9A
:1001500037250140130585408325050093034000A2
:10016000B3E575002320B500372501401305854010
:100170008325050093F54500E39805FE1303803EB3
:100180001303F3FFE31E03FE1305C052030405002F
:1001900063080400EF00001C130515006FF01FFF3B
:1001A000EF0040359304000013070000372501409D
:1001B0001305854083250500B70340009383130092
:1001C000B3E575002320B500372501401305054030
:1001D0008325050093F52500E38805FE37250140BA
:1001E0001305C5448327050093F7F73F1302070063
:1001F00093111200330232003302F200135722002F
:1002000013050700EF00C0261304D000EF00801490
:100210001304A000EF00001413850400EF00402534
:100220001304D000EF0000131304A000EF008012AD
:100230001303C02B13050300EF0080231304D00029
:10024000EF0040111304A000EF00C010637C6702B0
:100250001303E0296378E30613041004EF00800F12
:1002600013040002EF00000F13850400EF0040208C
:100270001304D000EF00000E1304A000EF00800D67
:100280006F004009B712014093820201130320005E
:1002900023A062009304000013042004EF00800BED
:1002A00013040002EF00000B13850400EF00401C54
:1002B0001304D000EF00000A1304A000EF0080092F
:1002C0006F00400563980404EF0000061304300536
:1002D000EF004008B7120140938202013703020089
:1002E00023A062009304100013043004EF00800682
:1002F00013040002EF00000613850400EF0040170E
:100300001304D000EF0000051304A000EF008004E8
:100310006F00400037C32D001303036C1303F3FF7A
:10032000E31E03FE6FF09FE8130181FF23201100FD
:1003300023227100B7A390159383C3269383F3FF01
:10034000E39E03FE8323410083200100130181000B
:1003500067800000130101FF232011002322710098
:100360002324A1002326B100374501401305058051
:100370008325050093F50508E38805FE9303040033
:10038000374501401305458023007500374501407E
:10039000130505808325050093F50504E38805FE14
:1003A0008325C100032581008323410083200100B0
:1003B0001301010167800000130181FF2320110058
:1003C0002322B10037450140130505808325050030
:1003D00093F50502E38805FE374501401305458086
:1003E000034505008325410083200100130181009E
:1003F00067800000130101FF2320110023228100E8
:1004000023247100232691009304040013D4440094
:10041000EF00C002EFF01FF413F4F400EF0000024D
:10042000EFF05FF38324C1008323810003244100A4
:10043000832001001301010167800000130141FFC7
:100440002320110023227100232481009303A000A4
:100450006344740013047400130404030320810034
:1004600083234100832001001301C1006780000045
:10047000130141FF23201100232281002324510076
:100480009302050013D48201EFF0DFF613D40201CA
:100490001374F40FEFF01FF613D482001374F40FEB
:1004A000EFF05FF5138402001374F40FEFF09FF484
:1004B0008322810003244100832001001301C10035
:1004C00067800000130181FF232011002322810097
:1004D0000304060063080400EFF0DFE713061600CC
:1004E0006FF01FFF032441008320010013018100EE
:1004F00067800000130181FF232011002322610087
:1005000037B31E001303A3B91303F3FFE31E03FE67
:100510000323410083200100130181006780000054
:0C052000000000000000000000000000CF
:10052C00636F6D70726573736F7220636F6E74722C
:0D053C006F6C206F6E6C696E650D0A2000FB
:00000001FF
